:1000000000308A002A28000094138C1126089300DF
:100010000230941B12288C1D0B2800308316111BF4
:1000200001308312F8000800253084008313000893
:10003000031927280230F800F701F70B1D28F80BE9
:100040001C289730F700F70B2328800B1A288A11F9
:100050000A12B62803081F398300713083168F00F7
:1000600090010F08FF308312A000A015200883160E
:100070008700831220162008831687001330930010
:100080002830831294008316941714138312A1014D
:10009000A201A301A401831603170908C03989002E
:1000A00003131F129F120030031788008312870169
:1000B0008801890183137F3083160313860009307A
:1000C0008312031785000F30F7000313810181307D
:1000D000840083130008F0390738800064000008AA
:1000E000F739F719F03977048000831681138312EA
:1000F00006188128861C81280730A1000330A30040
:100100008D2886188A28061C8A280530A10001300F
:10011000A3008D280830A100A30006199628861D8B
:1001200096280730A2000330A400A22886199F2831
:10013000061D9F280530A2000130A400A228083027
:10014000A200A400831611141118A4287030831281
:10015000A6000420210EF700F030F70577082207EB
:10016000A500A60004200130A5001428230EF700E6
:10017000F030F70577082407A500A60004208316B1
:0C01800011151119C128640077286300D4
:04400E00EC2FFF3F55
:00000001FF
;PIC16F887
;CRC=DC67  CREATED="01-sep.-21 17:15"
